:020000040800F2
:1000000080B50020A10100083D4D000841450008D1
:10001000F14C0008950B0008A563000800000000E3
:10002000000000000000000000000000F14F000888
:100030003B0D000800000000414D00086555000818
:10004000BB010008BB010008BB010008BB010008A0
:10005000BB010008BB010008BB010008BB01000890
:10006000BB010008BB010008BB010008BB01000880
:10007000F10B0008BB010008010C0008BB010008DF
:10008000BB010008BB010008BB010008A90B000868
:10009000990B0008BB010008BB010008BB01000868
:1000A000BB0100084556000835560008BB01000892
:1000B000BB010008BB010008BB010008BB01000830
:1000C000BB010008BB010008BB010008BB01000820
:1000D000BB01000899610008BB010008A961000884
:1000E000BB010008BB010008BB0100085556000811
:1000F00065560008BB010008BB010008BB010008F1
:10010000BB010008BB010008BB010008BB010008DF
:10011000BB010008BB010008BB010008BB010008CF
:10012000BB010008BB010008110C0008BB0100085E
:10013000BB010008BB010008BB010008C90B000897
:10014000B90B0008BB010008BB010008BB01000897
:10015000BB010008BB010008210C0008BB0100081E
:10016000BB010008BB010008BB010008BB0100087F
:10017000BB010008BB010008BB0100080000000033
:10018000BB010008BB010008DFF810D000F004FB41
:100190000048004719690008AFF3008080B50020CF
:1001A0000648804706480047FEE7FEE7FEE7FEE711
:1001B000FEE7FEE7FEE7FEE7FEE7FEE72156000862
:1001C000890100082DE9F05F0546002092469B4614
:1001D00088460646814640241BE02846414647465D
:1001E000224600F0E0F953465A46C01A914110D316
:1001F00011461846224600F0C7F92D1A67EB010890
:100200004F4622460120002100F0BEF917EB0009FD
:100210004E41201EA4F10104DFDC484631462A4647
:100220004346BDE8F09F40EA01039B0703D009E085
:1002300008C9121F08C0042AFAD203E011F8013BD2
:1002400000F8013B521EF9D27047D2B201E000F82B
:10025000012B491EFBD270470022F6E710B513466A
:100260000A4604461946FFF7F0FF204610BD2DE967
:10027000FE4F804681EA0300C00F0C46009021F03B
:10028000004123F00045B8EB0200A94105D24046E9
:10029000214690461C460B46024623F00040104380
:1002A00047D0270DC7F30A00C3F30A510290401A42
:1002B000019040286BDAC3F3130040F4801B0098D0
:1002C000924620B10023D2EB030A63EB0B0B01989B
:1002D0005946C0F14002504600F056F906460D4618
:1002E00050465946019A00F06EF910EB0800614142
:1002F000002487EA115284EAE7731A4340D0009A37
:1003000062B3019A012A4FEA075215DC001B61EB28
:1003100002014FF0004202EA0752CDE90042001C00
:1003200041F5801132462B4600F0A5F903B0BDE837
:10033000F08F40462146F9E7001B61EB0201001CEB
:1003400041F5801300185B412018A2F5001747EB18
:10035000030140EAD570B6196D4111E06D084FEA0E
:10036000360645EAC0754FEA0752001B61EB0201F1
:10037000001C41F5801149084FEA30000019514135
:1003800032462B4603B0BDE8F04F00F065B9009847
:10039000012240000023D0EB020263EBE0730098DF
:1003A00021464FEAE074B8EB000061EB0401E9E795
:1003B00083F000435BE781F0004158E72DE9F04D01
:1003C00081EA030404F0004B21F0004514464FF08D
:1003D000000A23F0004150EA050220D054EA01024D
:1003E0001DD0C5F30A570246C5F31303C1F313002A
:1003F000C1F30A5640F4801543F48013A7EB0608B6
:10040000101BD64608F2FD3873EB050002D308F145
:10041000010801E092185B41B8F1000F03DA0020F7
:100420000146BDE8F08D00204FF480110646844659
:100430000EE0171B73EB050705D3121B63EB0503D7
:1004400006434CEA010C49084FEA300092185B4120
:1004500050EA0107EDD152EA030012D082EA04000B
:1004600083EA0501084305D0101BAB4106D20122E7
:10047000002306E000224FF0004302E06FF001028B
:1004800053101AEB06004CEB085110EB0A0041EB3D
:100490000B01BDE8F04D00F0DFB80EB5C10F80EAEA
:1004A000E0700844CA07002140F233438DE80E0093
:1004B0000A460B4600F0DFF803B000BD70B5C1F38B
:1004C0000A5201F000450024C1F3130140F2FF334A
:1004D00041F480119A4201DA002070BD40F23343AA
:1004E0009A42A2F2334203DC524200F05CF800E090
:1004F00090402C43F1D0404270BD00F0004230F0FB
:1005000000400AD0C10D01F56071C0F3160042EA47
:100510000151C2084007114370470020014670474F
:1005200030B5041E71F1000404DB4FF0004440427A
:1005300064EB0101141E73F1000405DB1C464FF04F
:100540000043524263EB04038B4208BF824230BD3A
:1005500001F0004330B421F0004150EA010206D01E
:100560000A0DA2F56072C1F31301002A02DC30BC4F
:1005700000207047440F44EAC104C100E01830BCB9
:1005800000EBC25000F031B8202A04DB203A00FA18
:1005900002F1002070479140C2F1200320FA03F3DA
:1005A000194390407047202A04DB203A21FA02F0D8
:1005B0000021704721FA02F3D040C2F1200291409D
:1005C000084319467047202A06DBCB17203A41FA28
:1005D00002F043EAE07306E041FA02F3D040C2F1D0
:1005E000200291400843194670470029A8BF704770
:1005F000401C490008BF20F00100704710B4B0FA59
:1006000080FC00FA0CF050EA010404BF10BC7047F3
:1006100049B1CCF1200421FA04F411FA0CF118BF0D
:10062000012121430843A3EB0C01CB1D4FEA0061DC
:100630004FEA102042BF002010BC704700EBC350AF
:1006400010440029A4BF10BC7047401C490008BFDB
:1006500020F0010010BC704710B5141E73F10004A7
:1006600008DA401C41F1000192185B411A4301D1A4
:1006700020F0010010BD2DE9F04D92469B4611B1CE
:10068000B1FA81F202E0B0FA80F220329046FFF730
:100690007BFF04460F4640EA0A0041EA0B0153463D
:1006A0005A46084313D0114653EA010019D0C8F145
:1006B00040025046FFF777FF05460E465046594622
:1006C0004246FFF761FF084305D0012004E02046C1
:1006D0003946BDE8F08D0020054346EAE0762C431C
:1006E00037430A986305E40AA0EB08000022FD0ADC
:1006F00044EA47540A3002D500200146E9E70105E3
:1007000010196941DDE9084500196941BDE8F04D5E
:10071000A2E72DE9FE4FC3F30A5701F0004500247C
:10072000C1F30A56C3F31303C1F3130143F4801357
:1007300012EB020AA64641F48011009543EB030C2C
:10074000A7F1010B16E0B0EB0A0061EB0C01071EEC
:1007500071F1000707DA4FF00008D0EB080085F0D0
:10076000004568EB0101171A73EB0107EBD3761E06
:10077000001849415E45F6DA50EA010209D0CDE998
:1007800000E5002213460296FFF775FF03B0BDE8AF
:10079000F08F20460099F9E7064C074D06E0E06827
:1007A00040F0010394E8070098471034AC42F6D3B8
:1007B000FFF7EEFCA4750008C475000830B58C186E
:1007C00010F8012B12F00F0301D110F8013B1209B0
:1007D00006D110F8012B03E010F8015B01F8015B72
:1007E0005B1EF9D101E001F8013B521EFBD1A14291
:1007F000E6D3002030BD0000B0EE401AF0EE601AE3
:100800009FED1A5AF0EE453A9FED195AB0EE454A5F
:10081000B6EE005AF0EE454A31EEC15AF0EE450A06
:1008200032EE205AB0EE452A30EEE25AB0EE453AAA
:1008300023EEA05A04EE025A04EE835AB0EE450AA3
:10084000F0EE602A9FED0B5AB4EEC50AF1EE10FAF5
:100850000AD29FED095AB4EEC50AF1EE10FA03DD93
:100860009FED065AB0EE450A70470000000096431F
:10087000CDCC4C3E0000C8420000C8C200000000C1
:1008800010B501222021024801F0DAFA10BD000063
:100890000008024010B500222021024801F0D0FAE1
:1008A00010BD0000000802407047000010B5012292
:1008B0001021024801F0C4FA10BD000000080240F7
:1008C00010B500221021024801F0BAFA10BD000054
:1008D00000080240704710B5044603E04FF47A70F8
:1008E00000F006F8201EA4F101018CB2F6D110BD73
:1008F00070B5034600BF00BF0020002200BF4FF0CC
:10090000E0267569A82603FB06F44FF0E026B169DE
:1009100010E04FF0E026B06988420BD0884202D246
:100920000E1A324402E02E1A0E4432440146A2420C
:1009300000D300E0EDE700BF70BD10B50024FFF765
:10094000B3FFFFF7C7FF05F075FE044305F006FF90
:100950000443204610BD00002DE9FC4105460E462B
:100960001746002000900190FFF794FF922000F0BE
:10097000D1F806226946122000F0ACF8FFF780FF9C
:100980009DF80100000200B29DF8001040EA010449
:1009900000EE104AB8EEC00A4C48D0ED000A20EE36
:1009A000200A86ED000A9DF80300000200B29DF8BF
:1009B000021040EA010400EE104AB8EEC00A4348B3
:1009C000D0ED000A20EE200A86ED010A9DF8050010
:1009D000000200B29DF8041040EA010400EE104A43
:1009E000B8EEC00A3948D0ED000A20EE200A86EDA4
:1009F000020AFFF765FF08226946002000F06AF846
:100A0000FFF754FF9DF800000F2838D19DF8030030
:100A1000000200B29DF8021040EA010400EE104A04
:100A2000B8EEC00A2A48D0ED000A20EE200A85ED73
:100A3000000A9DF80500000200B29DF8041040EA8B
:100A4000010400EE104AB8EEC00A2148D0ED000AB9
:100A500020EE200A85ED010A9DF80700000200B291
:100A60009DF8061040EA010400EE104AB8EEC00AF4
:100A70001748D0ED000A20EE200A85ED020AFFF7A4
:100A800009FFA22000F046F802226946222000F069
:100A900021F8FFF7F5FE9DF80000C0009DF8011059
:100AA00040EA6114B4F5806F02DBA4F5006004B283
:100AB00000EE104AF8EEC00AB4EE001AB3EE070AD0
:100AC00000EE810A87ED000ABDE8FC81BC00002031
:100AD000C000002070B506460C46154646F0800062
:100AE00000F018F806E0552000F014F82070641C9F
:100AF000681EC5B2002DF6D170BD70B504460D4616
:100B000044F0800000F006F8552000F003F828704B
:100B100070BD000001B582B04FF47A70012301AAC4
:100B200002A90090024801F0A3FE9DF804000EBD4A
:100B3000A433002070B505460C462846FFF7EAFFAF
:100B40002046FFF7E7FF70BD462803D10C4991ED21
:100B5000000A7047422803D10A4991ED000AF8E7DC
:100B60004C2803D1084991ED000AF2E7522803D13D
:100B7000064991ED000AECE79FED050AE9E7000060
:100B80000800002010000020140000200C000020AD
:100B90000000000000BFFEE710B5024800F0E2FAD6
:100BA00010BD0000B424002010B5024800F0DAFAAD
:100BB00010BD0000B424002010B5024800F0D2FAA5
:100BC00010BD0000DC24002010B5024800F0CAFA75
:100BD00010BD0000DC24002010B5082202490348A3
:100BE00003F026FC10BD0000C8030020A452002022
:100BF00010B5024800F02EFE10BD0000EC5300209E
:100C000010B5024800F026FE10BD00004C54002034
:100C100010B5024800F01EFE10BD00002C5300204D
:100C200010B5024800F016FE10BD00008C530020E5
:100C30000146087810381823B0FBF3F20848805CAE
:100C4000C865032A05D908686FF30900001D886587
:100C500003E008686FF309008865886D704700003D
:100C600084750008014600208A6A8B69CBB932B1CD
:100C7000012A0DD0022A03D0032A10D10EE000BFB2
:100C8000CB6A03F08073B3F1807F00D1012007E0CD
:100C9000CB6AB3F1C07F00D1012001E000E000BFCA
:100CA00034E08B69B3F5005F1AD132B1012A07D065
:100CB000022A03D0032A11D10AE000BF01200EE06E
:100CC000CB6A03F08073B3F1807F00D1012006E08E
:100CD000CB6AB3F1C07F00D1012000E000BF15E076
:100CE00032B1012A05D0022A04D0032A0CD103E034
:100CF00000BF00BF012008E0CB6A03F08073B3F1AE
:100D0000807F00D1012000E000BF00BF704730B5F8
:100D10000468246824F4802405682C6004686360F7
:100D20008468402C04D10468A2600468E16003E098
:100D30000468A1600468E26030BD704772B600BF0D
:100D4000FEE710B5024692F82030012B01D0022BAD
:100D500006D110684069084314686061002010BD26
:100D6000506A40F4802050620120F8E7F0B5044654
:100D70000D461E4694F8207020688368A86800B964
:100D800000E000BF012F01D0022F7CD103F0806072
:100D900030B903F0006018B903F08050002873D018
:100DA000C3F30161022905D9606A40F40000606262
:100DB0000120F0BD012088403060A86860B9B5F816
:100DC00000C0E86840EA4C5C206800F5C07000EBA9
:100DD0000110C0F800C00FE0D5E901C040EACC0026
:100DE000D5F80CC040EA0C00D4F800C00CF5C07C6B
:100DF0000CEB011CCCF80000D5F810C0206800F501
:100E0000C07000EB0110C0F804C0287D01280ED18D
:100E1000206800F5C07000EB0110406840F4807C51
:100E2000206800F5C07000EB0110C0F804C0D07954
:100E3000000692F806C040EA0C4092F805C040EA6D
:100E40000C2C10794CEA000C206800F5C07000EB07
:100E50000110C0F80CC0D078000692F802C040EA39
:100E60000C4092F801C040EA0C2092F800C040EA21
:100E70000C00D4F800C00CF5C07C0CEB011CCCF8C5
:100E80000800206801E016E00FE000F5C07000EBFC
:100E90000110006840F0010C206800F5C07000EB04
:100EA0000110C0F800C0002083E7606A40F4001021
:100EB000606201207DE7606A40F48020606201206A
:100EC00077E70000F0B504460A46216894F8205000
:100ED000012D01D0022D7ED1424901F50071086833
:100EE00040F001000860086820F47C500860086841
:100EF000566A40EA06200860107D00F01F060120B7
:100F000000FA06F3C8699843C861A1F50071D06979
:100F1000C8B9D1F80C029843C1F80C02908880B28D
:100F2000968940EA064601F51070576940F8376027
:100F3000108880B2168940EA064601F5107057699C
:100F400000EBC7004660D069012819D1D1F80C0226
:100F50001843C1F80C02908880B2168840EA064611
:100F600001F51070576940F83760908980B2168992
:100F700040EA064601F51070576900EBC70046606D
:100F8000906928B9D1F804029843C1F8040204E03A
:100F9000D1F804021843C1F80402106928B9D1F845
:100FA00014029843C1F8140204E0D1F81402184363
:100FB000C1F81402106A012804D1D1F81C021843A8
:100FC000C1F81C02D1F8000220F00100C1F80002B3
:100FD0000020F0BDFFE7606A40F4802060620120DD
:100FE000F7E7000000640040704770B5044694F8CD
:100FF0002050012D01D0022D7DD151B92068C0684B
:1010000000F0030080B9606A40F4001060620120C3
:1010100070BD2068006900F0030028B9606A40F4E0
:10102000001060620120F3E7206800F5D87000EB43
:101030000110006800F004009060906840B92068DA
:1010400000F5D87000EB01100068400D106007E05B
:10105000206800F5D87000EB01100068C0085060EF
:10106000206800F5D87000EB0110006800F0020065
:10107000D060206800F5D87000EB0110406800F0E7
:101080000F001061206800F5D87000EB0110406877
:1010900000F47F40000A9061206800F5D87000EBF2
:1010A00001104068000C5061206800F5D87000EB1A
:1010B000011080681870206800F5D87000EB0110EE
:1010C000806800F47F40000A5870206800F5D870EE
:1010D00000EB0110806800F47F00000C987020681D
:1010E00000F5D87000EB01108068000ED870206801
:1010F00000F5D87000E02FE000EB0110C068187117
:10110000206800F5D87000EB0110C06800F47F4043
:10111000000A5871206800F5D87000EB0110C06813
:1011200000F47F00000C9871206800F5D87000EB87
:101130000110C068000ED87131B92068C06840F055
:1011400020002668F06005E02068006940F020007B
:101150002668306100205BE7606A40F480206062AE
:10116000012055E72DE9F05F044600252068466917
:101170002068D0F80490206887682068D0F80CA018
:101180002068D0F810B02068D0F8188006F0010070
:10119000002855D007F00100C0B101202168886007
:1011A00007F0020018B1204600F0E1FA0EE007F067
:1011B000040010B145F4006508E007F0080010B124
:1011C00045F4805502E0204600F0D0FA07F4807024
:1011D000C8B14FF480702168886007F4007018B1BE
:1011E000204600F0C6FA0EE007F4806010B145F426
:1011F000005508E007F4006010B145F4804502E0B6
:10120000204600F0B5FA07F48030C8B14FF48030C2
:101210002168886007F4003018B1204600F0ABFA6E
:101220000EE007F4802010B145F4004508E007F413
:10123000002010B145F4803502E0204600F09AFA13
:1012400006F0080038B10AF0100020B145F400752E
:1012500010202168C86006F0040040B10AF00800C0
:1012600028B108202168C860204600F01FFA06F067
:10127000020038B12068C06800F0030010B12046B9
:1012800000F016FA06F0400038B10BF0100020B163
:1012900045F4806510202168086106F0200040B107
:1012A0000BF0080028B1082021680861204600F0F2
:1012B0002BFA06F0100038B12068006900F0030036
:1012C00010B1204600F021FA06F4003040B109F0D8
:1012D000100028B1102021684860204600F016FA5E
:1012E00006F4803040B109F0080028B108202168D8
:1012F0004860204600F040FA06F4004088B309F048
:10130000040078B306F4807020B108F0010008B141
:1013100045F0010506F4007020B108F0020008B1A4
:1013200045F0020506F4806020B108F0040008B121
:1013300045F0040506F40060A0B108F0700088B123
:1013400008F07000402817D006DC10280BD02028A9
:101350000CD0302819D10CE0502810D0602814D1BE
:1013600010E01DE019E045F008050FE045F010051C
:101370000CE045F0200509E045F0400506E045F0A9
:10138000800503E045F4807500E000BF00BF2068E1
:10139000806920F07000216888610420216848601D
:1013A0002DB1606A284360622046FFF71DFEBDE84C
:1013B000F09F70B504460CB9012070BD94F8200070
:1013C00010B9204600F0B0F82068006840F0010035
:1013D0002168086000F03AFD05460DE000F036FD9A
:1013E000401B0A2808D9606A40F40030606205207A
:1013F00084F820000120E0E72068406800F0010048
:101400000028EBD02068006820F002002168086006
:1014100000F01CFD05460DE000F018FD401B0A28F9
:1014200008D9606A40F400306062052084F820002A
:101430000120C2E72068406800F002000028EBD1DC
:10144000207E012806D12068006840F080002168D5
:10145000086005E02068006820F0800021680860CE
:10146000607E012806D12068006840F040002168B5
:10147000086005E02068006820F0400021680860EE
:10148000A07E012806D12068006840F02000216875
:10149000086005E02068006820F0200021680860EE
:1014A000E07E012806D12068006820F01000216845
:1014B000086005E02068006840F0100021680860BE
:1014C000207F012806D12068006840F008002168CC
:1014D000086005E02068006820F0080021680860C6
:1014E000607F012806D12068006840F00400216870
:1014F000086005E02068006820F0040021680860AA
:10150000D4E902010843216908436169084361681D
:10151000491E08432168C86100206062012084F8E8
:101520002000002049E7000010B586B004461421D1
:1015300001A8FEF791FE5749206888424AD15648D3
:101540000068401C544908600846006801280FD113
:1015500000BF002000905148006840F000704F49E3
:1015600008600846006800F00070009000BF00BFEF
:1015700000BF0020009049481038006840F001008A
:101580004649103908600846006800F001000090E4
:1015900000BF00BF4FF4C050019002200290002015
:1015A0000390032004900920059001A93C4800F015
:1015B00045FB00221146132000F0D2FC132000F05E
:1015C000BFFC00221146142000F0CAFC142000F0D9
:1015D000B7FC5DE033492068884259D100BF002044
:1015E00000902E48006840F080602C490860084652
:1015F000006800F08060009000BF00BF26480068CF
:10160000401C254908600846006801280FD100BF2A
:10161000002000902148006840F000701F490860D9
:101620000846006800F00070009000BF00BF00BFD7
:101630000020009019481038006840F00200174957
:10164000103908600846006800F00200009000BFF2
:1016500000BF4FF440500190022002900020039000
:10166000032004900920059001A90F4800F0E6FA34
:10167000002211463F2000F073FC3F2000F060FC88
:1016800000221146402000F06BFC402000F058FC86
:1016900006B010BD006400409800002040380240B1
:1016A0000000024000680040000402407047000053
:1016B00010B58AB0044601AB03AA00212046FFF70B
:1016C00094FC0398A0F2012030B1012805D0022833
:1016D00004D0032811D102E000BF00BF00BF03986F
:1016E000401E07490870097801EB4101054A02EBE9
:1016F000011001A905F0D2F800BF00BF0AB010BD6B
:10170000B80000204C63002070477047704770B5E8
:10171000044694F82000012822D1022084F82000F9
:101720002068006820F001002168086000F08EFB4E
:1017300005460DE000F08AFB401B0A2808D9606AC4
:1017400040F400306062052084F82000012070BD64
:101750002068406800F001000028EBD16062F6E7E5
:10176000606A40F4002060620120F0E77047704733
:101770007047704770477047704770B50446A56D55
:1017800000F064FB064694F83500022808D080205B
:10179000606500BF002084F8340000BF012070BDE8
:1017A0002068006820F01600216808602068406901
:1017B00020F0800021684861206C08B9A06C28B135
:1017C0002068006820F00800216808602068006830
:1017D00020F001002168086010E000F037FB801B5A
:1017E00005280BD920206065032084F8350000BF50
:1017F000002084F8340000BF0320D0E72068006890
:1018000000F001000028E8D194F85C103F208840E7
:10181000A860012084F8350000BF002084F834005F
:1018200000BF00BFBBE7014691F83500022803D096
:101830008020486501207047052081F83500086840
:10184000006820F001000A6810600020F3E70146FC
:10185000486D7047F8B50446002000908C48006839
:101860004FF41651B0FBF1F7A56D2E6894F85C109B
:1018700008208840304098B12068006800F00400DB
:1018800070B12068006820F004002168086094F8B6
:101890005C1008208840A860606D40F00100606521
:1018A00094F85C1001208840304068B1206840699D
:1018B00000F0800040B194F85C1001208840A860DE
:1018C000606D40F00200606594F85C100420884070
:1018D000304068B12068006800F0020040B194F820
:1018E0005C1004208840A860606D40F004006065D2
:1018F00094F85C1010208840304078B3206800686D
:1019000000F0080050B394F85C1010208840A860E4
:101910002068006800F4802080B12068006800F42E
:10192000002028B9206CC8B12046216C884715E0FA
:10193000A06C98B12046A16C88470FE02068006831
:1019400000F4807028B92068006820F00800216841
:101950000860206C10B12046216C884794F85C1018
:10196000202088403040002865D02068006800F0C2
:10197000100000285FD094F85C1020208840A860F8
:1019800094F83500052828D12068006820F016005A
:10199000216808602068406920F080002168486163
:1019A000206C08B9A06C28B12068006820F00800FD
:1019B0002168086094F85C103F208840A8600120EE
:1019C00084F8350000BF002084F8340000BF206D8B
:1019D00010B12046216D8847F8BD2068006800F4EA
:1019E000802080B12068006800F4002028B9606C75
:1019F00010B12046616C88471DE0E06BD8B12046ED
:101A0000E16B884717E02068006800F4807068B9CF
:101A10002068006820F0100021680860012084F828
:101A2000350000BF002084F8340000BFE06B10B127
:101A30002046E16B8847606D38B3606D00F00100AF
:101A4000F0B1052084F835002068006820F001001E
:101A50002168086000BF0098401C0090B84200D97F
:101A600005E02068006800F001000028F3D100BF05
:101A7000012084F8350000BF002084F8340000BF46
:101A8000E06C10B12046E16C884700BFA4E700007D
:101A9000A80000202DE9F0410446002500F0D6F909
:101AA000074614B90120BDE8F081606A00B100BFAB
:101AB000022084F8350000BF002084F8340000BF05
:101AC0002068006820F00100216808600AE000F04A
:101AD000BDF9C01B052805D920206065032084F8C6
:101AE0003500E0E72068006800F001000028EED132
:101AF0002068056821480540D4E901010843E168F0
:101B000008432169084361690843A1690843E16901
:101B10000843216A08430543606A042803D1D4E9D5
:101B20000B0108430543206805602068456925F0DE
:101B30000705606A0543606A04280DD1A06A054361
:101B4000E06A48B12046FFF78DF828B14020606573
:101B5000012084F83500A6E7206845612046FFF79C
:101B600067F8064694F85C103F208840B06000207B
:101B70006065012084F83500002094E73F8010F074
:101B80002DE9F04704460D4616461F464FF0000863
:101B9000D4F8589000BF94F83400012802D10220F4
:101BA000BDE8F087012084F8340000BF94F83500C8
:101BB000012825D1022084F83500002060653B46CD
:101BC000324629462046FFF7A2F894F85C103F20E1
:101BD0008840C9F808002068006840F016002168B5
:101BE0000860206C28B12068006840F00800216877
:101BF00008602068006840F001002168086006E085
:101C000000BF002084F8340000BF4FF002084046B7
:101C1000C6E7000070B5044600F018F906462546F0
:101C2000681C10B104480078054400BF00F00EF9AC
:101C3000801BA842FAD370BDA4000020F8B502466C
:101C40000B460025002400200021D6E0012606FADC
:101C500001F51E6806EA0504AC4274D11E7906F04F
:101C60000306012E04D01E7906F00306022E13D1BE
:101C700090684F000326BE40B0434F00DE68BE4070
:101C800030439060506801268E40B0431E79C6F301
:101C900000168E40304350601E7906F00306032E76
:101CA00009D0D0684F000326BE40B0434F009E6865
:101CB000BE403043D0601E7906F00306022E13D1D9
:101CC000CF0802F1200656F827004E07F70E0F2620
:101CD000BE40B0434F07FF0E1E69BE403043CF08E1
:101CE00002F1200646F8270010684F000326BE4088
:101CF000B0431E7906F003064F00BE40304310602B
:101D00005E6806F44036002E76D000BF00260096AE
:101D10003C4E366846F480463A4F3E603E46366852
:101D200006F48046009600BF00BF374E8F0856F875
:101D300027008E07370F0F26BE40B043334EB24206
:101D400002D1002624E057E0314EB24201D10126F3
:101D50001EE0304EB24201D1022619E02E4EB242B0
:101D600001D1032614E02D4EB24201D104260FE02A
:101D70002B4EB24201D105260AE02A4EB24201D1D1
:101D8000062605E0284EB24201D1072600E00826CB
:101D90008F073F0FBE4030431B4E8F0846F8270089
:101DA000224E3068A0435E6806F4801606B12043D8
:101DB0001E4E3060361D3068A0435E6806F4001683
:101DC00006B12043194E361D3060184E361F30685C
:101DD000A0435E6806F4003606B12043134E361F5A
:101DE0003060361F3068A0435E6806F4803606B166
:101DF00020430E4E083E3060491C1029FFF426AFE8
:101E0000F8BD00004438024008380140000002409C
:101E10000004024000080240000C02400010024092
:101E20000014024000180240001C0240083C01401F
:101E3000024613690B400BB1012000E000207047FF
:101E40000AB1816101E00B048361704701480068B9
:101E5000704700009C00002003480068034909788F
:101E600008440149086070479C000020A40000203D
:101E700010B50D48006840F400700B490860084632
:101E8000006840F4806008600846006840F4807094
:101E90000860032000F0A2F80F2000F007F800F01F
:101EA0002BF8002010BD0000003C024070B5044635
:101EB0000E4800784FF47A71B1FBF0F00C490968D4
:101EC000B1FBF0F5284600F0E8FD08B1012070BD37
:101ED000102C07D200222146501E00F041F8054880
:101EE000046001E00120F2E70020F0E7A4000020F8
:101EF000A8000020A000002008B500BF002000902E
:101F00000E48006840F480400C49086008460068AC
:101F100000F48040009000BF00BF00BF0020009090
:101F2000081F006840F08050091F086008460068DC
:101F300000F08050009000BF00BF08BD4438024050
:101F400001460846002809DB00F01F0301229A40E1
:101F500043099B0003F1E023C3F8002100BF704751
:101F60002DE9F05F80460D461646002704F09CFAE6
:101F7000074639462A46334601F00700C0F1070AF2
:101F8000BAF1040F02D94FF0040A01E0C0F1070AC8
:101F9000D14600F1040ABAF1070F02D24FF0000A4D
:101FA00001E0A0F1030AD4464FF0010A0AFA09FA47
:101FB000AAF1010A0AEA020A0AFA0CFA4FF0010B26
:101FC0000BFA0CFBABF1010B0BEA030B4AEA0B0417
:101FD0002146404604F070FABDE8F09F00BF00F0D3
:101FE0000702064B19684FF6FF031940044B0B43D9
:101FF00043EA0221014B196000BF70470CED00E07D
:102000000000FA0570B504460D460CB9012070BDFC
:102010005848006800F00700A84209D255490D70E1
:102020000846006800F00700A84201D00120EEE752
:10203000207800F0020002281DD1207800F0040072
:10204000042805D14C48006840F4E0504A49086033
:10205000207800F00800082805D14748006840F4BF
:102060006040454908604448006820F0F000A168DD
:10207000084341490860207800F00100A8B3606877
:10208000012807D13C4808380068C0F34040B8B97F
:102090000120BCE76068022802D06068032807D1ED
:1020A000354808380068C0F3406048B90120AEE701
:1020B000314808380068C0F3400008B90120A6E79D
:1020C0002D48006820F00300616808432A49086031
:1020D000FFF7BCFE064609E0FFF7B8FE801B41F2A1
:1020E0008831884202D9032091E707E0224800683E
:1020F00000F00C006168B0EB810FEDD11D48006865
:1021000000F00700A84209D91A490D700846006876
:1021100000F00700A84201D0012078E7207800F005
:102120000400042807D11448006820F4E050E16856
:10213000084311490860207800F00800082808D1F9
:102140000D48006820F46040216940EAC1000A4956
:10215000086000F03FF808490968C1F30311074A15
:10216000515CC8400649086006480068FFF79EFEBB
:1021700000204CE7003C0240083802408C75000803
:10218000A8000020A000002001480068704700005F
:10219000A800002000B5FFF7F7FF04490968C1F364
:1021A0008221034A515CC84000BD0000083802404B
:1021B0009C75000800B5FFF7E7FF04490968C1F303
:1021C0004231034A515CC84000BD0000083802405B
:1021D0009C7500082DE9F047002400250026A14643
:1021E0002548006800F00C0020B1042805D008281C
:1021F0003AD105E0DFF8849039E0DFF8849036E0EA
:102200001D48001F006800F03F041B48001F0068C5
:1022100000F4800078B11A481749091F0968C1F312
:102220008811A0FB01700146224600233846FDF7C5
:10223000C9FF05460EE011480F49091F0968C1F39F
:102240008811A0FB01700146224600233846FDF7A5
:10225000B9FF05460848001F0068C0F30140401C54
:102260004600B5FBF6F902E0DFF8109000BF00BFB2
:102270004846BDE8F0870000083802400024F4001A
:1022800040787D01F8B504460CB90120F8BD2078EE
:1022900000F00100002874D0F948006800F00C003C
:1022A00004280DD0F648006800F00C00082813D16F
:1022B000F348001F006800F48000B0F5800F0BD1D8
:1022C000EF4808380068C0F34040002859D06068E3
:1022D000002856D10120D9E700BF6068B0F5803FE3
:1022E00008D1E7480838006840F48030E4490839EC
:1022F00008601EE06068B0F5A02F0DD1E0480838F6
:10230000006840F48020DE4908390860084600680B
:1023100040F4803008600CE0D9480838006820F4A8
:102320008030D749083908600846006820F48020CA
:10233000086000BF606890B1FFF788FD054606E0C1
:10234000FFF784FD401B642801D903209EE7CC4899
:1023500008380068C0F340400028F1D011E0FFF7D2
:1023600075FD054606E0FFF771FD401B642801D9A5
:1023700003208BE7C24808380068C0F340400028BB
:10238000F1D1207800F0020002285FD1BC4800683B
:1023900000F00C0058B1BA48006800F00C000828A2
:1023A0001CD1B748001F006800F48000B0B9B448E1
:1023B00008380068C0F3400020B1E068012801D06F
:1023C000012063E7AE480838006820F0F800216972
:1023D00040EAC100AA490839086037E0E06800B364
:1023E0000120A8490860FFF731FD054606E0FFF728
:1023F0002DFD401B022801D9032047E7A0480838DB
:102400000068C0F340000028F1D09D4808380068FB
:1024100020F0F800216940EAC100994908390860B4
:1024200014E0002097490860FFF710FD054606E01C
:10243000FFF70CFD401B022801D9032026E7904836
:1024400008380068C0F340000028F1D1207800F07F
:10245000080008282CD16069A8B101208A490860C9
:10246000FFF7F4FC054606E0FFF7F0FC401B0228EE
:1024700001D903200AE782486C300068C0F34000AD
:102480000028F1D014E000207F490860FFF7DEFC4F
:10249000054606E0FFF7DAFC401B022801D90320BD
:1024A000F4E677486C300068C0F340000028F1D1B2
:1024B000207800F00400042870D1002770483830DC
:1024C000006800F0805090B900BF002000906C4878
:1024D0003830006840F0805069493831086008465B
:1024E000006800F08050009000BF00BF01276748DF
:1024F000006800F48070B0B96448006840F48070EF
:1025000062490860FFF7A2FC054606E0FFF79EFC63
:10251000401B022801D90320B8E65C48006800F49B
:1025200080700028F2D000BFA068012808D154486C
:102530006830006840F001005149683108601DE0D2
:10254000A06805280DD14E486830006840F00400AE
:102550004B49683108600846006840F00100086097
:102560000CE047486830006820F0010044496831B9
:1025700008600846006820F00400086000BFA068FA
:10258000A8B1FFF763FC054609E0FFF75FFC401BBD
:1025900041F28831884202D9032077E626E03848A4
:1025A00068300068C0F340000028EED013E0FFF769
:1025B0004DFC054608E0FFF749FC401B41F288311D
:1025C000884201D9032061E62D4868300068C0F3D5
:1025D00040000028EFD1012F07D12948383000688A
:1025E00020F0805026493831086000BFA0690028DB
:1025F00045D02348006800F00C0008285DD0A06991
:10260000022845D100201F490866FFF71FFC054638
:1026100006E0FFF71BFC401B022801D9032035E62A
:10262000174808380068C0F340600028F1D1D4E9A9
:1026300007010843616A40EA81110122A06AC2EBE6
:10264000500041EA00412C20005D41EA00600C4945
:10265000091F086001200B490866FFF7F7FB0546D4
:1026600006E0FFF7F3FB401B022801D903200DE62B
:10267000034808380068C0F340600028F1D049E002
:102680000838024000004742800E47420070004078
:10269000002021490866FFF7D9FB054606E0FFF751
:1026A000D5FB401B022801D90320EFE51B48006839
:1026B000C0F340600028F2D12CE0A069012800D1CD
:1026C000E4E51648001D0668A069012820D006F43C
:1026D0008001E06981421BD106F03F01206A8142FE
:1026E00016D147F6C0703040616AB0EB811F0FD140
:1026F00006F440310122A06AC2EB5000B1EB004F5A
:1027000006D106F070612C20005DB1EB006F01D0A6
:102710000120BBE50020B9E5000047420038024037
:1027200010B504460CB9012010BD606A38B9606864
:10273000B0F5827F00D105E00021E16102E00021D7
:10274000216161610021A16294F8510028B9002043
:1027500084F85000204600F047F8022084F8510029
:102760002068006820F0400021680860A08800F41C
:102770008270218901F404410843A18901F40061B8
:102780000843217C01F002010843217D01F0010191
:102790000843218B01F400710843217F01F03801C7
:1027A00008432021095D01F080010843218D01F4D7
:1027B00000510843216808600421A06901EA104023
:1027C00094F8241001F01001084321684860206843
:1027D000C06920F400602168C861002060650120A4
:1027E00084F8510000209FE710B586B004461421FC
:1027F00001A8FDF731FD1B49206888422FD100BF99
:10280000002000901848006840F480501649086085
:102810000846006800F48050009000BF00BF00BF71
:102820000020009010481438006840F001000E4964
:10283000143908600846006800F00100009000BFED
:1028400000BFE020019002200290002003900320AE
:1028500004900520059001A90448FFF7EFF906B0A0
:1028600010BD00000030014044380240000002402A
:102870002DE9FF5F0446884691461D460E9E0120C5
:1028800002900020019000BF94F85000012803D16D
:10289000022004B0BDE8F09F012084F8500000BF82
:1028A000FFF7D4FA074694F851B060680390AA463F
:1028B000BBF1010F0BD00398B0F5827F04D1A06863
:1028C00010B9BBF1040F02D002200190DBE0B8F197
:1028D000000F03D0B9F1000F00D015B9012001900D
:1028E000D1E094F85100042802D0052084F851006A
:1028F00000206065C4F83890E587A587C4F830806B
:10290000E586A586206460642068006800F04000C9
:10291000402805D02068006840F040002168086029
:10292000E068B0F5006F4AD1606810B1BAF1010FEC
:1029300009D1206B00882168C860206B801C20634F
:10294000E08E401EE08633E02068806800F00200E0
:10295000022810D1E08E70B1029801280BD1206BB3
:1029600000882168C860206B801C2063E08E401EB8
:10297000E086002002902068806800F0010068B1C5
:10298000E08F58B12068C068A16B0880A06B801CE4
:10299000A063E08F401EE08701200290FFF756FA07
:1029A000C01BB04204D3701C10B1032001906AE038
:1029B000E08E0028C8D1E08F0028C5D14AE06068C9
:1029C00010B1BAF1010F09D1206B007821680873AA
:1029D000206B401C2063E08E401EE08634E02068BF
:1029E000806800F00200022810D1E08E70B10298D9
:1029F00001280BD1206B007821680873206B401CE4
:102A00002063E08E401EE0860020029020688068EF
:102A100000F0010068B1E08F58B12068C068A16B78
:102A20000870A06B401CA063E08F401EE08701206F
:102A30000290FFF70BFAC01BB04201D3701C00B923
:102A400016B9032001901EE0E08E0028C7D1E08F68
:102A50000028C4D13A463146204602F027FA20B178
:102A600001200190202060650DE0A06850B900BFF2
:102A7000002000902068C068009020688068009066
:102A800000BF00BF00BF012084F8510000BF00203C
:102A900084F8500000BF0198FBE670B50446254657
:102AA000681EB0F1807F01D301200FE0681E4FF057
:102AB000E02148610F214FF0FF3003F0FDFC0020C2
:102AC0004FF0E021886107200861002070BD704749
:102AD0007047000030B502460B4600BF92F83C003C
:102AE000012801D1022030BD012082F83C0000BF46
:102AF000022082F83D00106844681068816824F064
:102B000070041868044310684460184D1068A842A7
:102B10001BD01068B0F1804F17D0154D1068A84237
:102B200013D0144D1068A8420FD0134D1068A8425E
:102B30000BD0124D1068A84207D0114D1068A84262
:102B400003D0104D1068A84205D121F080015868CB
:102B5000014310688160012082F83D0000BF002021
:102B600082F83C0000BF00BFBDE70000000001404C
:102B70000004004000080040000C00400004014038
:102B8000004001400018004010B504460CB9012077
:102B900010BD94F83D0028B9002084F83C00204680
:102BA00000F026F8022084F83D00211D206802F084
:102BB00061FD012084F8460000BF84F83E00012139
:102BC0003F200155402001554120015500BF00BF65
:102BD000012084F84200432001554420015545203E
:102BE000015500BF012084F83D000020D0E700001F
:102BF00038B504462068B0F1804F0FD100BF0020E7
:102C000000904248006840F00100404908600846D2
:102C1000006800F00100009000BF76E03C492068A9
:102C200088421AD100BF002000903848001D00687B
:102C300040F400303549091D08600846006800F47A
:102C40000030009000BF00BF002211461920FFF79E
:102C500087F91920FFF774F957E02E492068884258
:102C60001AD100BF002000902848001D006840F4E1
:102C700080202649091D08600846006800F480206D
:102C8000009000BF00BF002211461A20FFF768F92C
:102C90001A20FFF755F938E01F492068884218D1FB
:102CA00000BF002000901948006840F0400017491C
:102CB00008600846006800F04000009000BF00BFB8
:102CC000002211462B20FFF74BF92B20FFF738F994
:102CD0001BE012492068884217D100BF00200090F5
:102CE0000A48006840F0800008490860084600680B
:102CF00000F08000009000BF00BF002211462C2091
:102D0000FFF72EF92C20FFF71BF938BD40380240A1
:102D1000004401400048014000180040001C0040F1
:102D2000014691F83D00012801D0012070470220A2
:102D300081F83D000868C06840F001000B68D86069
:102D40001A4B086898421BD00868B0F1804F17D022
:102D5000174B0868984213D0164B086898420FD05A
:102D6000154B086898420BD0144B0868984207D05E
:102D7000134B0868984203D0124B086898420CD154
:102D80000868806800F00702062A0CD0086800680E
:102D900040F001000B68186005E00868006840F02A
:102DA00001000B6818600020C0E70000000001402F
:102DB0000004004000080040000C004000040140F6
:102DC00000400140001800402DE9F04104460D4646
:102DD000002700BF94F83C00012802D10220BDE882
:102DE000F081012084F83C0000BF022084F83D00FF
:102DF0002068866826F0770626F47F46206886607D
:102E00002868502833D00CDC202850D004DC00285F
:102E10004BD0102851D149E0302849D040284CD11E
:102E200039E060282DD0702807D0B0F5805F03D03E
:102E3000B0F5005F41D10DE041E0D5E902136A68C9
:102E4000206802F083FC2068866846F077062068D8
:102E5000866034E0D5E902136A68206802F076FCE7
:102E60002068806840F480402168886027E0EA6834
:102E70006968206802F07EFC5021206802F071FC35
:102E80001DE0EA686968206802F087FC602120681C
:102E900002F067FC13E0EA686968206802F06AFCE7
:102EA0004021206802F05DFC09E000BF00BF00BFC8
:102EB0002968206802F055FC01E0012700BF00BF2F
:102EC000012084F83D0000BF002084F83C0000BFD2
:102ED000384684E7704710B5044620680069C0F39F
:102EE0004000D8B12068C068C0F34000B0B16FF0B6
:102EF000020021680861012020772068806900F0C5
:102F0000030018B12046FFF7E5FF05E0204600F07A
:102F1000ADF8204600F0ABF800202077206800696B
:102F2000C0F38000D8B12068C068C0F38000B0B1A1
:102F30006FF0040021680861022020772068806912
:102F400000F4407018B12046FFF7C4FF05E02046AA
:102F500000F08CF8204600F08AF8002020772068E6
:102F60000069C0F3C000D8B12068C068C0F3C000D9
:102F7000B0B16FF008002168086104202077206854
:102F8000C06900F0030018B12046FFF7A3FF05E079
:102F9000204600F06BF8204600F069F8002020770A
:102FA00020680069C0F30010D8B12068C068C0F381
:102FB0000010B0B16FF01000216808610820207780
:102FC0002068C06900F4407018B12046FFF782FF06
:102FD00005E0204600F04AF8204600F048F80020BE
:102FE00020772068006900F0010058B12068C068AF
:102FF00000F0010030B16FF0010021680861204647
:1030000000F036F820680069C0F3C01058B120689D
:10301000C068C0F3C01030B16FF080002168086153
:103020002046FFF754FD20680069C0F3801058B1B6
:103030002068C068C0F3801030B16FF04000216894
:103040000861204600F0CCFE20680069C0F3401003
:1030500058B12068C068C0F3401030B16FF0200054
:10306000216808612046FFF733FD10BD70477047A7
:1030700010B52DED048B0446FE492068884201D12D
:1030800002F0A0FBFC49206888423AD1FB4AFC4987
:10309000FC48FDF761FCFA4890ED000AFA4880ED23
:1030A000000AF74890ED010AF74880ED010AF4485C
:1030B00090ED020AF44880ED020AF24890ED000A11
:1030C000F14880ED030AEF4890ED010AEE4880EDEB
:1030D000040AEC4890ED020AEB4880ED050A03F083
:1030E00063F9EA48007848B1E74890ED060A10EE27
:1030F000101A0846FDF701FAE54A03C2E54801F057
:103100008DFAE549206888427ED1E0480078082899
:1031100020D2DFE810F0080020008500A70040045E
:10312000CA04BD05DA05DD480088401CDB4908807B
:1031300008460088C8280DDDD9480078012809D143
:103140009FEDD80AD04880ED060A002008800220B2
:10315000CE490870FEE3D448006800784C282BD193
:10316000D2494868002801DB014600E0414241F2B3
:103170007072914213DACE49096809782F39B92261
:1031800011FB02F1963100EE101AB8EEC00AC949DF
:10319000D1ED000AB4EEE00AF1EE10FA05DD0020F0
:1031A000C24908600220B94908700020BF49086080
:1031B00008464068C8384860BB4800680078522814
:1031C0002DD1BA494868002801DB014600E04142A0
:1031D00041F27072914213DAB549096809782F39C2
:1031E000B92211FB02F1963100EE101AB8EEC00AB6
:1031F000B149D1ED000AB4EEE00AF1EE10FA07DDB4
:103200000020AA49086000E0FEE302209F49087000
:103210000020A649086008464068C830486099E721
:1032200000209F490870A0490968087801F006FE4F
:10323000A0B19D490968087801F000FE04280DD06E
:1032400099490968087801F0F9FD0B2806D09649DC
:103250000968087801F0F2FD0C2802D103208B499F
:10326000087077E79248006803788F480068027812
:103270008849924801F0BEFE904800688B4908607A
:103280008E48406848608E4800680078532879D09E
:103290008748006800783038062873DA8948006863
:1032A0000078303806286DDA7F490968087801F01F
:1032B000C5FDA0B17C490968087801F0BFFD04286C
:1032C0000DD079490968087801F0B8FD0B2806D0BF
:1032D00075490968087801F0B1FD0C2852D172498E
:1032E0000968087802F08EFA02284BD96E490968FD
:1032F0000878FDF729FC6E48006800782F38B9215E
:1033000010FB01F07D3000EE900AF8EEE00AB4EE1A
:10331000E00AF1EE10FA35D2634909680878FDF742
:1033200013FC6348006800782F38B92110FB01F0C6
:103330000A3000EE900AF8EEE00AB4EEE00AF1EE90
:1033400010FA1FDD5E490968087801F04FF9564907
:1033500009680978884215D05948006800785249B0
:103360000968097888420DD05748006800784E49AE
:1033700009680978884205D1002054490870042062
:103380004249087050490968087801F02FF9464908
:103390000968097888426BD1494800680078532849
:1033A00066D04848006800783038062860DA484817
:1033B000006818B947480078012859D04049096881
:1033C000087801F013F938490968097888424FD024
:1033D0003B4800680078344909680978884247D03A
:1033E00031490968087801F029FDA0B12E49096822
:1033F000087801F023FD04280DD02B4909680878CE
:1034000001F01CFD0B2806D027490968087801F057
:1034100015FD0C286DD124490968087802F0F2F9ED
:10342000022866D9204909680878FDF78DFB2048F5
:10343000006800783038B92110FB01F0B73000EE99
:10344000900AF8EEE00AB4EEE00AF1EE10FA50D27B
:10345000154909680878FDF777FB1548006800787A
:103460003038B92110FB01F0933000EE900A33E0C0
:103470003FE00000004401400048014030000020CF
:103480003C14002030140020481400209400002038
:103490003800002044000020001800409600002062
:1034A000DE030020000000004C0000206C1400200F
:1034B00050000020140000200C0000207814002090
:1034C000580000205400002048000020290000205F
:1034D00078000020FB030020F8EEE00AB4EEE00ADA
:1034E000F1EE10FA05DD0020FE4908700520FE49C6
:1034F0000870FE4800680078532874D0FB490968BA
:10350000087801F073F8FA4909680978884207D009
:10351000F64800680078F64909680978884262D15F
:10352000F44800680078F2490968097888425AD05E
:10353000F148006818B9F1480078012853D0EC49E7
:103540000968087801F07AFCA0B1E94909680878AF
:1035500001F074FC04280DD0E5490968087801F0F1
:103560006DFC0B2806D0E2490968087801F066FC7A
:103570000C2838D1DE490968087802F043F902289E
:1035800031D9DB4909680878FDF7DEFADC480068C4
:1035900000783038B92110FB01F0A63000EE900A17
:1035A000F8EEE00AB4EEE00AF1EE10FA1BD2D049D0
:1035B00009680878FDF7C8FAD14800680078303803
:1035C000B92110FB01F0903000EE900AF8EEE00A0D
:1035D000B4EEE00AF1EE10FA05DD0020C1490870F2
:1035E0000520C1490870C1480068007853287DD083
:1035F000C148006818B9C148007801287FD0BB498C
:103600000968087800F0F2FFB9490968097888422A
:1036100075D0B64800680078B549096809788842CD
:103620006DD0B4490968087800F0E0FFB049096836
:103630000978884263D0B34800680078303806289B
:103640005DDAAF48006800783038062857DBA849B3
:103650000968087801F0F2FBA0B1A549096808786B
:1036600001F0ECFB04280DD0A1490968087801F0AD
:10367000E5FB0B2806D09E490968087801F0DEFBBF
:103680000C283CD19A490968087802F0BBF868B365
:10369000974909680878FDF757FA99480068007853
:1036A0003038B92110FB01F0813000EE900AF8EEBD
:1036B000E00AB4EEE00AF1EE10FA20DD8C49096868
:1036C0000878FDF741FA8E48006800783038B92153
:1036D00010FB01F09A3000EE900AF8EEE00AB4EE2A
:1036E000E00AF1EE10FA0AD2002000E007E07D497E
:1036F000087005207C49087000207A4908707B48D2
:1037000000680078532859D17E4800680078303826
:10371000062853DA76490968087801F08FFBA0B1D2
:1037200073490968087801F089FB04280DD07049B5
:103730000968087801F082FB0B2806D06C490968FB
:10374000087801F07BFB0C2838D1694909680878B2
:1037500002F058F8022831D9654909680878FDF760
:10376000F3F96748006800783038B92110FB01F0A0
:103770009C3000EE900AF8EEE00AB4EEE00AF1EEBA
:1037800010FA1BD25A4909680878FDF7DDF95C4840
:10379000006800783038B92110FB01F0843000EE69
:1037A000900AF8EEE00AB4EEE00AF1EE10FA05DD58
:1037B00000204C49087005204B4908704E480068AD
:1037C000E8BB4E48007801285BD14E48006800787D
:1037D0003038062855DA46490968087801F02EFB8A
:1037E000A0B143490968087801F028FB04280DD0EE
:1037F0003F490968087801F021FB0B2806D03C49B5
:103800000968087801F01AFB0C283AD13849096890
:10381000087801F0F7FF022833D93549096808789C
:10382000FDF792F93648006800783038B92110FB6E
:1038300001F0AA3000EE900AF8EEE00A00E020E085
:10384000B4EEE00AF1EE10FA1BD2294909680878B3
:10385000FDF77AF92A48006800783038B92110FB62
:1038600001F0873000EE900AF8EEE00AB4EEE00ACC
:10387000F1EE10FA05DD00201A49087005201A49FA
:103880000870204800680078303806287ADB18492C
:103890000968087801F0D2FAA0B1154909680878DA
:1038A00001F0CCFA04280DD011490968087801F01C
:1038B000C5FA0B2806D00E490968087801F0BEFA4F
:1038C0000C285FD10A490968087801F09BFF02289B
:1038D00058D906490968087800F088FE0449096843
:1038E000097811E0290000209400002058000020F1
:1038F0004C0000204800002078000020FB0300203E
:10390000500000205400002088423BD0FE48006850
:103910000078FE4909680978884233D0FB49096874
:103920000878FDF711F9FA48006800783038B921B5
:1039300010FB01F0993000EE900AF8EEE00AB4EEC8
:10394000E00AF1EE10FA1DD2F04909680878FDF797
:10395000FBF800E0C8E1EE48006800783038B92193
:1039600010FB01F0873000EE900AF8EEE00AB4EEAA
:10397000E00AF1EE10FA05DD0020E64908700520A6
:10398000E5490870E14800680078532802D1052015
:10399000E1490870A8E1DE4800680378DA48006869
:1039A0000278DA4800680178DC4801F0A5FBDB48C2
:1039B0000068DB490860D94840684860D249096816
:1039C000087801F03BFAA0B1CF490968087801F006
:1039D00035FA04280DD0CC490968087801F02EFA90
:1039E0000B2806D0C8490968087801F027FA0C2886
:1039F0003DD1C6490968087801F004FF052836D989
:103A0000C1490968087800E0D5E100F0EFFD024601
:103A1000FDF79AF8C348006800782F38B92110FBE9
:103A200001F04B3000EE900AF8EEE00AB4EEE00A46
:103A3000F1EE10FA1BDDB4490968087800F0D6FDF4
:103A40000246FDF781F8B748006800782F38B921A1
:103A500010FB01F0AF3000EE900AF8EEE00AB4EE91
:103A6000E00AF1EE10FA02D20520AB490870A6492F
:103A70000968087800F0BAFDA44909680978884205
:103A80000FD0A14800680078A049096809788842E9
:103A900007D0A548006800789C49096809788842E1
:103AA00002D005209C4908701EE197480068007804
:103AB000532804D0954800680078532803D1062085
:103AC0009549087011E09948006858B998480078FD
:103AD000012807D1002092490860486002208E49E1
:103AE000087002E002208C4908700020904908709C
:103AF0008E480068401C8D4908608E48096830F87F
:103B0000110020B946208849096808702EE08948CC
:103B10008649096830F81100012804D14C208249F7
:103B20000968087022E083488049096830F811006C
:103B3000022804D142207C490968087016E07D48BB
:103B40007A49096830F81100032804D152207649D7
:103B5000096808700AE077487449096830F811006C
:103B6000042803D1532070490968087071486430F3
:103B70006E49096830F8110020B946206349096888
:103B8000087032E06B4864306849096830F8110009
:103B9000012804D14C205D490968087025E065487A
:103BA00064306249096830F81100022804D14220CB
:103BB00056490968087018E05E4864305B49096836
:103BC00030F81100032804D15220504909680870C8
:103BD0000BE0584864305549096830F81100042852
:103BE00003D153204949096808705248C8304F49E9
:103BF000096810F8110030304549096808704E48CE
:103C00004A49096810F811003030464909680870BF
:103C1000484946480068401C31F8100020B9462049
:103C200039490968087032E0424940480068401C40
:103C300031F81000012804D14C203349096808707C
:103C400025E03C4939480068401C31F81000022842
:103C500004D142202C490968087018E035493348DE
:103C60000068401C31F81000032804D15220264976
:103C7000096808700BE02F492C480068401C31F897
:103C80001000042803D153201F49096808702BE055
:103C9000002023490860486028480068012801D1B5
:103CA0002749087025480068401C244908602548B9
:103CB0000078012808D100201C490860022016491C
:103CC000087000201D4908600EE0002014490860BB
:103CD000486002211C48FEF7ABF828B902200E49C3
:103CE000087000201949087000BF0B480078A8B37D
:103CF0009FED171B184890ED000B02F0F1FBB0EEA2
:103D0000409AF0EE609A2AE0580000204C00002013
:103D1000500000202900002094000020781400208A
:103D20006C1400205400002048000020780000207F
:103D3000FB030020A0A00020CCA1002070000020E8
:103D4000D3030020DE030020001002406C0000209E
:103D500000000000008076403800002013E051ECA5
:103D6000190BFCF7F5FB08EE100ADFED170AB0EEB1
:103D7000480AFCF741FDB1EE400ABDEEC00A134807
:103D800080ED020A02E000201049886010480078A7
:103D900058B902210F48FEF74BF8012805D107203A
:103DA0000D49087001200A490870084B9A68596843
:103DB000186800F0A7FC09492068884201D103F087
:103DC0008DFABDEC048B10BD000000006C140020C7
:103DD0006C0000200010024094000020001C0040F5
:103DE0007047704710B5044600BF00BF21680C3112
:103DF00051E8001F21F4907021680C3141E8000265
:103E0000002AF3D100BF00BF00BF2168143151E880
:103E1000001F21F001002168143141E80002002A4E
:103E2000F3D100BF206B01280ED100BF00BF216875
:103E30000C3151E8001F21F0100021680C3141E8DD
:103E40000002002AF3D100BF2068406900F0400062
:103E5000402820D100BF00BF2168143151E8001F65
:103E600021F040002168143141E80002002AF3D11A
:103E700000BFA06B78B10020A16B0865A06BFDF7B7
:103E80007CFC40B1A06BFDF7E2FC202803D11020A0
:103E90002064032010BD0020E085202084F83E002F
:103EA0000020206300BFF5E7704700002DE9F84FC0
:103EB0000446206805682068C668206847694FF096
:103EC0000009CA4605F00F09B9F1000F0AD105F043
:103ED000200038B106F0200020B1204601F032FF6A
:103EE000BDE8F88FB9F1000F7CD007F0010018B9D8
:103EF00006F49070002875D005F0010030B106F48A
:103F0000807018B1206C40F00100206405F00400BE
:103F100030B107F0010018B1206C40F002002064BD
:103F200005F0020030B107F0010018B1206C40F03C
:103F30000400206405F0080048B106F0200010B924
:103F400007F0010018B1206C40F008002064206CDC
:103F5000002846D005F0200028B106F0200010B15E
:103F6000204601F0EFFE20684069C0F3801A206C03
:103F700000F0080010B9BAF1000F2DD0204601F072
:103F800088FE2068406900F04000402820D100BF32
:103F900000BF2168143151E8001F21F04000216862
:103FA000143141E80002002AF3D100BFA06B50B1E8
:103FB0007548A16B0865A06BFDF735FC88B1A06B57
:103FC000016D88470DE02046FFF76EFF09E009E02C
:103FD0002046FFF769FF04E02046FFF765FF002059
:103FE00020647DE7206B012876D105F010000028C1
:103FF00072D006F010000028FAD000BF0020009018
:1040000020680068009020684068009000BF00BFF2
:104010002068406900F0400040285ED1A06B006835
:1040200040681FFA80F8B8F1000F54D0A08D4045C9
:1040300051DDA4F82E80A06BC069B0F5807F43D01D
:1040400000BF00BF21680C3151E8001F21F48070CF
:1040500021680C3141E80002002AF3D100BF00BF03
:1040600000BF2168143151E8001F21F001002168D0
:10407000143141E80002002AF3D100BF00BF00BFA5
:104080002168143151E8001F21F0400021681431EB
:1040900041E80002002AF3D100BF202084F83E004E
:1040A0000020206300BF00BF21680C3151E8001FD1
:1040B00021F0100021680C3141E80002002AF3D100
:1040C00000BFA06BFDF759FBA08DE28D801A81B275
:1040D0002046FFF786FE03E740E0A08DE18D401A01
:1040E0001FFA80F8E08DC0B3B8F1000F35D000BFE3
:1040F00000BF21680C3151E8001F21F49070216845
:104100000C3141E80002002AF3D100BF00BF00BF1C
:104110002168143151E8001F21F001002168143199
:1041200041E80002002AF3D100BF202084F83E00BD
:104130000020206300BF00BF21680C3151E8001F40
:1041400021F0100021680C3141E80002002AF3D16F
:1041500000BF41462046FFF744FEC1E605F080005F
:1041600030B106F0800018B1204601F0E5FFB7E657
:1041700005F0400030B106F0400018B1204601F0D3
:10418000BEFDADE600BFABE6F95A000810B5044627
:104190000CB9012010BDA06900B100E000BF94F887
:1041A0003D0028B9002084F83C00204600F028F8A3
:1041B000242084F83D002068C06820F40050216865
:1041C000C860204601F03AFE2068006920F4904063
:1041D000216808612068406920F02A002168486150
:1041E0002068C06840F400502168C8600020206446
:1041F000202084F83D0084F83E000020CAE700003B
:1042000010B586B00446142101A8FCF725F87D49B5
:104210002068884279D100BF002000907A48006869
:1042200040F01000784908600846006800F010006F
:10423000009000BF00BF00BF0020009072481438FB
:10424000006840F0010070491439086008460068B1
:1042500000F00100009000BF00BF4FF4C06001906B
:104260000220029000200390032004900720059074
:1042700001A96648FDF7E2FC6548664908604FF011
:1042800000604860002163488160C1604FF4806134
:1042900001610021416181614FF48071C1610021A0
:1042A00001624162FDF7F6FB08B1FCF747FD00BF74
:1042B0005848A063846300BF554878305649086069
:1042C0004FF0006048604021534881600021C16088
:1042D0004FF480610161002141618161C16101622E
:1042E0004162FDF7D7FB08B1FCF728FD00BF4A4843
:1042F0006063846300BF002211462520FDF730FE75
:104300002520FDF71DFE7BE0FFE744492068884239
:1043100076D100BF002000903B48001F006840F4A9
:1043200080203949091F08600846006800F4802091
:10433000009000BF00BF00BF00200090324814383A
:10434000006840F0080030491439086008460068E9
:1043500000F00800009000BF00BF4FF440700190D3
:104360000220029000200390032004900720059073
:1043700001A92B48FDF762FC2A482B4908604FF041
:1043800000604860002128488160C1604FF480616E
:104390000161002141618161C16101624162FDF7FA
:1043A00079FB08B1FCF7CAFC00BF1F48A063846317
:1043B00000BF1C4830301D4908604FF00060486065
:1043C00040211A4881600021C1604FF48061016181
:1043D000002141618161C16101624162FDF75AFBC7
:1043E00008B1FCF7ABFC00BF10486063846300BFFA
:1043F000002211462720FDF7B3FD2720FDF7A0FD81
:1044000006B010BD001001404438024000000240D8
:10441000406402402C5300208C5300200048004090
:10442000000C024028600240EC5300204C54002055
:1044300070B504460D46164694F83E00202816D165
:1044400005B10EB9012070BD00BF94F83C000128F1
:1044500001D10220F7E7012084F83C0000BF0020D2
:10446000206332462946204601F0FEFDEBE702209C
:10447000E9E70000034A0168914202D10121024AA2
:104480001170704700100140D003002070470000F9
:10449000F7B50446154694F83D00202846D101980A
:1044A00000B10DB90120FEBD00BF94F83C00012809
:1044B00001D10220F7E7012084F83C0000BF0198F9
:1044C0002062A584E58400202064212084F83D003A
:1044D0001748616BC8631748616B08641648616BC5
:1044E000C8640020616B086501AE23681A1D31683D
:1044F0002B46606BFDF744FB6FF0400021680860BD
:1045000000BF002084F83C0000BF00BF00BF21684E
:10451000143151E8001F41F080002168143141E856
:104520000002002AF3D100BF0020BCE70220BAE756
:104530002D5C0008855C00080D5B00087047704723
:1045400000BFFEE710B52DED048BB0EE409AF0EE03
:10455000609A9FED210BB0EE408AF0EE608A022057
:104560000CE0411E1E4A02EBC10191ED000B114609
:1045700001EBC00181ED000B411EC8B20128F0DA49
:10458000174880ED009B002412E0154800EBC400A2
:1045900090ED001BB0EE410AF0EE610A53EC102BD7
:1045A00051EC180BFBF763FE41EC180B601CC4B216
:1045B000032CEADB9FED0B0B53EC102B51EC180B8B
:1045C000FBF7FCFE41EC180BB0EE480AF0EE680A6F
:1045D000BDEC048B10BD00000000000000000000D6
:1045E000208300200000000000000840014646290A
:1045F00001D142207047422901D14620FAE74C29D7
:1046000001D15220F6E7522901D14C20F2E753297B
:1046100001D15320EEE70020ECE7000070B504461E
:104620004FF480413348FDF703FCC50001213248B7
:10463000FDF7FEFB05EB800580213048FDF7F8FB18
:1046400005EB40054FF400712C48FDF7F1FB2844C1
:1046500020704FF480712948FDF7EAFBC500022164
:104660002548FDF7E5FB05EB80054FF400412148A7
:10467000FDF7DEFB05EB40054FF400511D48FDF74B
:10468000D7FB284460704FF480611D48FDF7D0FBD4
:10469000C5004FF480411948FDF7CAFB05EB8005C2
:1046A0004FF480511548FDF7C3FB05EB40054FF46F
:1046B00080611248FDF7BCFB2844A0704FF40061F4
:1046C0000E48FDF7B5FBC5004FF400510B48FDF750
:1046D000AFFB05EB80054FF400410848FDF7A8FB50
:1046E00005EB40054FF400610548FDF7A1FB2844A8
:1046F000E07070BD0014024000180240001002403B
:1047000000040240F8B504460D46164660193044D0
:1047100000EE100AB8EEC00A3D4880ED010A601BA9
:10472000304400EE100AB8EEC00A394880ED1A0A8B
:104730006042401B304400EE100AB8EEC00A344814
:1047400080ED330A60422844304400EE100AB8EE8F
:10475000C00A2F4880ED4C0A2E48B0F9000000EE48
:10476000900AF8EEE00AB0EE600A2948016E884728
:104770002848B0F9300000EE900AF8EEE00AB0EEFA
:10478000600A2348D0F8C410643088472148B0F943
:10479000600000EE900AF8EEE00AB0EE600A1C48F5
:1047A000D0F82811C83088471A48B0F9900000EEB8
:1047B000900AF8EEE00AB0EE600A1548D0F88C11C5
:1047C00000F596708847124890ED570ABDEEC00A72
:1047D00010EE100A00B200900D4890ED3E0ABDEEBA
:1047E000C00A10EE100A03B2094890ED250ABDEE8A
:1047F000C00A10EE100A02B2054890ED0C0ABDEE98
:10480000C00A10EE100A01B2034802F0E3FDF8BD41
:10481000C47200204C630020DC24002010B50E4838
:104820000E4908600220486000210C488160C16088
:104830004FF4702101614FF4401141610021017674
:1048400041768176C17601774177FCF7B2FD08B1F8
:10485000FCF774FA10BD000000640040B42400208E
:1048600010B50E480E4908600320486000210C482E
:104870008160C1604FF43021016100214161017606
:104880000121417600218176C17601774177FCF7DD
:1048900090FD08B1FCF752FA10BD0000006800401E
:1048A000DC24002008B500BF002000901E480068EE
:1048B00040F400101C4908600846006800F400102D
:1048C000009000BF00BF00BF0020009008460068B5
:1048D00040F4800008600846006800F48000009002
:1048E00000BF00BF002211460C20FDF739FB0C2051
:1048F000FDF726FB002211460E20FDF731FB0E20AE
:10490000FDF71EFB002211463A20FDF729FB3A2055
:10491000FDF716FB002211464620FDF721FB46203D
:10492000FDF70EFB08BD00003038024000B587B02F
:10493000142102A8FBF790FC00BF00200190624800
:10494000006840F08000604908600846006800F098
:104950008000019000BF00BF00BF0020019008460A
:10496000006840F0010008600846006800F001009F
:10497000019000BF00BF00BF002001900846006802
:1049800040F0040008600846006800F00400019050
:1049900000BF00BF00BF002001900846006840F043
:1049A000200008600846006800F02000019000BF69
:1049B00000BF00BF002001900846006840F04000A2
:1049C00008600846006800F04000019000BF00BF8A
:1049D00000BF002001900846006840F01000086009
:1049E0000846006800F01000019000BF00BF00BF43
:1049F000002001900846006840F002000860084668
:104A0000006800F00200019000BF00BF00BF00205E
:104A100001900846006840F00800086008460068F9
:104A200000F00800019000BF00BF0022302127489D
:104A3000FDF706FA30200290012003900020049038
:104A4000059002A92148FDF7F9F84FF46040029063
:104A500000200390049002A91D48FDF7EFF8032001
:104A6000029000200390049002A91A48FDF7E6F88E
:104A70004FF68070029000200390049002A916481F
:104A8000FDF7DCF84FF440600290002003900490A2
:104A900002A91248FDF7D2F8402002904FF4881086
:104AA00003900020049002A90A48FDF7C7F80220ED
:104AB0000290002003900220049002A90648FDF70E
:104AC000BDF807B000BD00003038024000080240C9
:104AD000001402400018024000100240000402408E
:104AE00010B50F480F4908604FF4827048600021EC
:104AF0000C488160C16002210161012141614902CC
:104B000081613821C16100210162416281620A2113
:104B1000C162FDF705FE08B1FCF710F910BD0000F9
:104B200000300140A433002010B50A480A4908604B
:104B3000A720486000210848816041F28731C160A8
:104B4000002101618161FEF71FF808B1FCF7F6F85A
:104B500010BD000000440140E442002010B50A48A6
:104B60000A490860A720486000210848816040F297
:104B7000E731C160002101618161FEF705F808B1EC
:104B8000FCF7DCF810BD0000004801402C43002079
:104B90001FB5002000900190029003900E480F492D
:104BA0000860A720486000210C48816042F20F7124
:104BB000C160002101618161FDF7E6FF08B1FCF7EA
:104BC000BDF84FF48050009069460448FEF7FCF8A9
:104BD00008B1FCF7B3F81FBD001800407443002073
:104BE00010B50A480A49086040F28F604860002109
:104BF000074881604CF24F31C16000210161816141
:104C0000FDF7C2FF08B1FCF799F810BD001C004089
:104C1000BC43002000B587B00020039004900590AD
:104C20000690019002904FF0804014490860A72040
:104C3000486000211148816040F2E731C1600021E5
:104C400001618161FDF7A0FF08B1FCF777F84FF42F
:104C50008050039003A90948FEF7B6F808B1FCF7A5
:104C60006DF800200190029001A90448FDF732FF81
:104C700008B1FCF763F807B000BD00009C420020BB
:104C800010B50B480B4908604FF4E1304860002133
:104C900008488160C16001610C214161002181618E
:104CA000C161FFF773FA08B1FCF748F810BD0000C6
:104CB00000100140A452002010B50B480B490860B9
:104CC0004FF461204860002108488160C1600161A3
:104CD0000C21416100218161C161FFF757FA08B1E0
:104CE000FCF72CF810BD000000480040E8520020FE
:104CF00000BFFEE701B56946087800024B7840EA3C
:104D000003408B7840EA0362D01702EB1060001278
:104D100008BD30B5024613460024002003E01D5CA8
:104D20002544ECB2401C4D1E8542F8D8481E185C44
:104D3000A04201D1012030BD0020FCE700BFFEE70A
:104D40007047000001B582B00CA103C9CDE9000194
:104D50009DF808008DF804009DF809008DF8050005
:104D60009DF80A008DF806009DF80B008DF80700ED
:104D70000821684602F0D8FB0EBD0000A300000029
:104D800050460000B0EE401AF0EE601ABBEE0E5A2C
:104D9000F0EE453A9FED235AB0EE454AB6EE005A82
:104DA000F0EE454A31EEC15AF0EE450A32EE205A95
:104DB000B0EE452A30EEE25AB0EE453A23EEA05A64
:104DC00004EE025A04EE835AB0EE450AF0EE602A71
:104DD0009FED155AB4EEC50AF1EE10FA0AD29FED16
:104DE000135AB4EEC50AF1EE10FA03DD9FED105A26
:104DF000B0EE450A9FED0F5AB4EEC50AF1EE10FA77
:104E000003DD9FED0C5AB0EE450A9FED0B5AB4EE50
:104E1000C50AF1EE10FA03D29FED075AB0EE450A2B
:104E200070470000CDCCCC3D0000C8420000C8C295
:104E30000000000000E02B4600E02BC6014646299A
:104E400008D1164890ED000ABCEEC00A10EE100A18
:104E5000C0B27047422908D1114890ED000ABCEE5B
:104E6000C00A10EE100AC0B2F3E74C2908D10D4871
:104E700090ED000ABCEEC00A10EE100AC0B2E8E7DE
:104E8000522908D1084890ED000ABCEEC00A10EE85
:104E9000100AC0B2DDE70120DBE70000B803002004
:104EA000C0030020C4030020BC0300207CB50446DE
:104EB0000D461646164800681821B0FBF1F015495A
:104EC000B0FBF1F04FF47A71484301906068B0F59F
:104ED000827F0DD12B46002280212046009600F0D3
:104EE0001BF898B1606D40F02000606503207CBD28
:104EF00000BF019800B908E00198401E01902068A9
:104F00008068C0F3C0100028F3D100BF0020EEE796
:104F1000A800002040420F002DE9F84F04460D463E
:104F200090461E46DDF82890FCF790FFA0EB0900A4
:104F3000371AFCF78BFF82462C480068C0F3CB3051
:104F40007843009045E0701C002842D0FCF77EFFBB
:104F5000A0EB0A00B84200D2A7BB2068406820F04E
:104F6000E000216848606068B0F5827F0DD1A068DC
:104F7000B0F5004F03D0A068B0F5806F05D1206870
:104F8000006820F0400021680860A06AB0F5005F6A
:104F90000DD100BF2068006820F40050216808602F
:104FA0002068006840F400502168086000BF0120BC
:104FB00084F8510000BF002084F8500000BF032097
:104FC000BDE8F88FFFE7009800B900270098401E61
:104FD0000090206880682840A84201D1012000E0AC
:104FE00000204045AFD10020EAE70000A8000020E3
:104FF000704700002DE9F04104460D4617469846DB
:10500000A8F13006422F1ED0462F04D04C2F35D0A9
:10501000522F66D14CE0B92106FB01F0963000EE2C
:10502000100AB8EEC00AF0EE400A2F4890ED000AD0
:10503000FFF7A8FEBDEEC00A84ED000AA87800F0D4
:105040005BFA60604DE0B92106FB01F0963000EE9E
:10505000100AB8EEC00AF0EE400A244890ED000AAB
:10506000FFF790FEB1EE400ABDEEC00A84ED000AE3
:10507000E87800F041FA4042606032E0287800F0C1
:105080003BFA2060B92106FB01F0963000EE100AD1
:10509000B8EEC00AF0EE400A154890ED000AFFF79E
:1050A00071FEB1EE400ABDEEC00A84ED010A18E0BF
:1050B000687800F021FA40422060B92106FB01F037
:1050C000963000EE100AB8EEC00AF0EE400A094829
:1050D00090ED000AFFF756FEBDEEC00A84ED010A0E
:1050E00000BF00BFBDE8F0810800002010000020D4
:1050F000140000200C0000202DE9F0472DED088B56
:1051000004460F4615469946A9F130069FEDF40B6B
:10511000B0EE408AF0EE608A422F7CD0462F04D059
:105120004C2F77D0522F73D161E1B92106FB01F0EA
:10513000963000EE100AB8EEC00AF0EE400AEA48D7
:1051400090ED000AFFF71EFEBDEEC00A84ED000AD6
:105150004C2D2DD1D4F80080B8F1000F01DB414671
:1051600001E0C8F100010846FBF797F941EC190B83
:1051700053EC182BFBF7D4F91AD8D4F80080B8F107
:10518000000F01DB414601E0C8F100010846FBF7D2
:1051900084F941EC1B0B53EC182BFBF70CF941EC99
:1051A0001A0B81F0004141EC190BFBF787F96060A5
:1051B000522D29D1D4F80080B8F1000F01DB41460F
:1051C00001E0C8F100010846FBF767F941EC190B53
:1051D00053EC182BFBF7A4F916D8D4F80080B8F1DB
:1051E000000F01DB414601E0C8F100010846FBF772
:1051F00054F941EC1A0B53EC182BFBF7DCF841EC9B
:10520000190BFBF75BF96060532D01D10020606042
:1052100061E100E075E0B92106FB01F0963000EE97
:10522000100AB8EEC00AF0EE400AB04890ED000A4D
:10523000FFF7A8FDB1EE400ABDEEC00A84ED000AFA
:105240004C2D2DD1D4F80080B8F1000F01DB414680
:1052500001E0C8F100010846FBF71FF941EC190B0A
:1052600053EC182BFBF75CF91AD8D4F80080B8F18E
:10527000000F01DB414601E0C8F100010846FBF7E1
:105280000CF941EC1B0B53EC182BFBF794F841EC99
:105290001A0B81F0004141EC190BFBF70FF960602C
:1052A000522D29D1D4F80080B8F1000F01DB41461E
:1052B00001E0C8F100010846FBF7EFF841EC190BDB
:1052C00053EC182BFBF72CF916D8D4F80080B8F162
:1052D000000F01DB414601E0C8F100010846FBF781
:1052E000DCF841EC1A0B53EC182BFBF764F841EC9B
:1052F000190BFBF7E3F86060532D01D100206060CB
:10530000E9E0B92106FB01F0963000EE100AB8EE94
:10531000C00AF0EE400A764890ED000AFFF732FD31
:10532000B1EE400ABDEEC00A84ED010A462D29D136
:10533000D4F80480B8F1000F01DB414601E0C8F168
:1053400000010846FBF7A9F841EC190B53EC182BA8
:10535000FBF7E6F816D8D4F80480B8F1000F01DBAB
:10536000414601E0C8F100010846FBF796F841EC20
:105370001A0B53EC182BFBF71EF841EC190BFBF73B
:105380009DF82060422D2DD1D4F80480B8F1000F93
:1053900001DB414601E0C8F100010846FBF77DF85A
:1053A00041EC190B53EC182BFBF7BAF81AD8D4F8C8
:1053B0000480B8F1000F01DB414601E0C8F10001B3
:1053C0000846FBF76AF841EC1B0B53EC182BFAF775
:1053D000F2FF41EC1A0B81F0004141EC190BFBF795
:1053E0006DF82060532D01D10020206073E0B921B9
:1053F00006FB01F0963000EE100AB8EEC00AF0EE9F
:10540000400A3C4890ED000AFFF7BCFCBDEEC00A24
:1054100084ED010A462D29D1D4F80480B8F1000F9B
:1054200001DB414601E0C8F100010846FBF735F811
:1054300041EC190B53EC182BFBF772F816D8D4F883
:105440000480B8F1000F01DB414601E0C8F1000122
:105450000846FBF722F841EC1A0B53EC182BFAF72D
:10546000AAFF41EC190BFBF729F82060422D2DD142
:10547000D4F80480B8F1000F01DB414601E0C8F127
:1054800000010846FBF709F841EC190B53EC182B07
:10549000FBF746F81AD8D4F80480B8F1000F01DB06
:1054A000414601E0C8F100010846FAF7F6FF41EC79
:1054B0001B0B53EC182BFAF77EFF41EC1A0B81F013
:1054C000004141EC190BFAF7F9FF2060532D01D18F
:1054D0000020206000BF00BFBDEC088BBDE8F08756
:1054E000000000000058BB40080000201000002011
:1054F000140000200C000020014610292BD2DFE808
:1055000001F0080A0D10121416181A1C1E2022246D
:105510002628002070474FF4FA60FBE74FF47A70BA
:10552000F8E70020F6E70D48F4E70020F2E7002056
:10553000F0E70020EEE70A48ECE70020EAE7002069
:10554000E8E70020E6E70020E4E70020E2E70020AB
:10555000E0E70020DEE70020DCE7000018FCFFFFAA
:1055600030F8FFFF10B5FCF777FC10BD00B593B025
:10557000302107A8FAF770FE142102A8FAF76CFE92
:1055800000BF002001902448006840F0805022496C
:1055900008600846006800F08050019000BF00BF1E
:1055A00000BF002001901D48006840F480401B4966
:1055B00008600846006800F48040019000BF00BF0A
:1055C000012007900004089002200D9041050E91E3
:1055D00019210F914FF4A87110910221119104210A
:1055E000129107A8FCF74EFE08B1FBF7A7FB0F20AE
:1055F000029002200390002004904FF4A0500590E8
:105600004FF480500690052102A8FCF7FBFC08B17E
:10561000FBF794FB13B000BD40380240007000401F
:105620000348006840F470000149086070470000BA
:1056300088ED00E010B50248FDF74DFC10BD0000FC
:105640002C43002010B50248FDF745FC10BD0000BA
:10565000E442002010B50248FDF73DFC10BD0000FB
:105660007443002010B50248FDF735FC10BD000062
:10567000BC43002010B50268294B98420ED0B0F10F
:10568000804F0BD0274B984208D0274B984205D02B
:10569000264B984202D0264B984203D122F070024A
:1056A0004B681A431E4B984220D0B0F1804F1DD05A
:1056B0001C4B98421AD01C4B984217D01B4B984257
:1056C00014D01B4B984211D01A4B98420ED01A4B53
:1056D00098420BD0194B984208D0194B984205D0EC
:1056E000184B984202D0184B984203D122F44072D2
:1056F000CB681A4322F080034C6943EA040202603B
:105700008B68C3620B688362054B984202D0084BDA
:10571000984201D10B6903630123436110BD00006E
:10572000000001400004004000080040000C004060
:105730000004014000400140004401400048014095
:1057400000180040001C00400020004030B50C460E
:10575000816821F47F4142EA032525432943816082
:1057600030BD0A46816821F0700142F007031943F9
:105770008160704730B50B461446026A056A25F011
:1057800001050562816921F0F00141EA041122F06E
:105790000A021A438161026230BD30B50B461446DD
:1057A000056A25F0100505628169026A21F47041DD
:1057B00041EA043122F0A00242EA0312816102624E
:1057C00030BD000010B508220B490C48FEF760FE02
:1057D0000B480078401C0A490870084600780528E4
:1057E00001DB01200870064800780349087104486D
:1057F00000786330C87110BD19000020E852002005
:10580000180000200146462907D1144890ED000AEF
:10581000BCEEC00A10EE100A7047422907D11048AA
:1058200090ED000ABCEEC00A10EE100AF4E74C2915
:1058300007D10C4890ED000ABCEEC00A10EE100A29
:10584000EAE7522907D1084890ED000ABCEEC00AE9
:1058500010EE100AE0E70120DEE70000A8030020B8
:10586000B0030020B4030020AC03002070B52D4825
:10587000D0F810222C4801682C489047054629484A
:105880008479012D4CD1C4EB0410C0EBC41028491D
:1058900001EB800044702348007BC4EB0411C1EB92
:1058A000C411234A02F82100002030E01D491031C4
:1058B00001EBC00191ED000AC4EB0411C1EBC4116E
:1058C0001B4A02EB8101091D01EB800181ED000AF9
:1058D0001449103101EBC0010A79C4EB0411C1EB8A
:1058E000C411134B03EB810101F582710A540D4978
:1058F000103101EBC001CA88C4EB0411C1EBC41123
:1059000003EB810101F5A27121F81020401CC4EBCA
:105910000411C1EBC411064A12F821108142C5DC02
:1059200070BD00009401002024000020A01200207F
:10593000C883002070B55F48C2695F4801685F484E
:10594000904705465B48047A012D3ED15C4800EB48
:10595000041004705748C08A594901EB041148816A
:105960005448007D564901EB04110872544800EB7D
:105970000410007A88B1524800EB0410007A042821
:105980000BD04F4800EB0410007A0B2805D04C4890
:1059900000EB0410007A0C2817D1464890ED040A59
:1059A000F1EE000AB4EEE00AF1EE10FA0DD290ED3D
:1059B000040AB5EEC00AF1EE10FA06DD90ED040A15
:1059C0003F4800EB041080ED010A3D4890ED050AC8
:1059D000DFED3C0A20EE200A3B4880ED000A384803
:1059E00090ED090ADFED370A20EE200A374880EDF6
:1059F000000A334890ED0D0ADFED320A20EE200A4E
:105A0000334880ED000A2E4890ED110ADFED2D0A93
:105A100020EE200A2F4880ED000A2948408B00EE36
:105A2000100AB8EE400A2C4880ED000A2448408D48
:105A300000EE100AB8EE400A284880ED000A20481F
:105A4000408F00EE100AB8EE400A254880ED000AAB
:105A50001B48B0F84A0000EE100AB8EE400A214890
:105A600080ED000A1648007E00EE100AB8EE400AEB
:105A70001D4880ED000A124890F8280000EE100A38
:105A8000B8EE400A194880ED000A0D4890F8380039
:105A900000EE100AB8EE400A154880ED000A0848EA
:105AA00090F8480000EE100AB8EE400A114880ED68
:105AB000000A70BD7401002024000020A012002004
:105AC0004883002000007A44080000200C000020D9
:105AD0001000002014000020A8030020AC030020C8
